:10000000F8C0000027C1000025C1000023C1000086
:1000100021C100001FC100001DC100001BC1000064
:1000200019C1000017C1000015C1000013C1000074
:1000300011C100000FC100000DC100000BC1000084
:1000400009C1000007C1000005C1000003C1000094
:1000500001C10000FFC00000FDC000000C948F4DE6
:10006000F9C000000C9497570C94C757F3C00000D8
:10007000F1C00000EFC00000EDC00000EBC00000C8
:10008000E9C00000E7C00000E5C00000E3C00000D8
:100090000C943E580C946E58DDC00000DBC000008C
:1000A000D9C00000D7C00000D5C00000D3C00000F8
:1000B000D1C00000CFC00000CDC00000CBC0000008
:1000C000C9C00000C7C00000C5C000000C94E558BE
:1000D0000C941559BFC000000C948C590C94BC5959
:1000E000B9C0000000002100240027002A002D00D4
:1000F0003000330001010000040107010A01000083
:100100002200250028002B002E00310034000201BF
:100110000000050108010B01050505050705080894
:100120000808020202020A0A080804040404010181
:100130000101010101010303030303030303040796
:1001400007070C0C0C0C0C0C0C0C0202020206062D
:100150000606060606060B0B0B0B0B0B0B0B010220
:1001600010202008081020401020408002010201C9
:100170000804020101020408102040808040201081
:1001800008040201800402018040201008040201DA
:100190000804020101020408102040800102040842
:1001A0001020408000000A0B02090C0D0E08070306
:1001B000040100000000000000000000000000003A
:1001C000000000000000000000000000000000002F
:1001D00012111000000000000000000000000000EC
:1001E000000000000000000000003258D95880597B
:1001F000295A11241FBECFEFD1E2DEBFCDBF00E0F0
:100200000CBF12E0A0E0B2E0E4EFF5EB00E00BBFC2
:1002100002C007900D92A63DB107D9F727E0A6EDE1
:10022000B2E001C01D92AB30B207E1F710E0C9EFB8
:10023000D0E000E006C021970109802FFE010E9456
:10024000C35AC53FD10780E00807A9F70E94724B47
:100250000C94F85AD5CECF93DF931F921F92CDB74F
:10026000DEB789836A838A81882329F460E08981E3
:100270000E941C510CC08A81813029F461E089817F
:100280000E941C5104C062E089810E941C51000040
:100290000F900F90DF91CF910895CF93DF931F922E
:1002A0001F92CDB7DEB789836A838A81882329F0BC
:1002B00061E089810E94BB5204C060E089810E9494
:1002C000BB5200000F900F90DF91CF910895EF92F5
:1002D000FF920F931F93CF93DF93CDB7DEB72C9789
:1002E0000FB6F894DEBF0FBECDBF69837A838B83D0
:1002F0009C832D833E834F835887E986FA860B873C
:100300001C87898161E00E941C5189819A81019634
:100310009C0189819A81AB81BC81A901BC01CD017D
:10032000F8D020E030E0A90169857A858B859C852D
:100330000E94004D1816BCF469857A858B859C85D2
:100340000E944A4CDC01CB018C016D817E818F8142
:1003500098850E944A4CDC01CB019C0189819A81DD
:10036000A801B90155D189819A8101962C960FB6C1
:10037000F894DEBF0FBECDBFDF91CF911F910F91DB
:10038000FF90EF900895CF93DF9300D000D01F929D
:10039000CDB7DEB79B838A834C835D836E837F8377
:1003A000CE010296FC0180818823B9F1CE0102962C
:1003B000FC0180818150898320E030E0A9016C81BB
:1003C0007D818E819F810E94414C1816D4F08C81D2
:1003D0009D81AE81BF81B0588C839D83AE83BF83E6
:1003E0006C817D818E819F810E944A4C9B01AC0172
:1003F0008981882F90E0A0E0B0E0BC01CD01E7D07A
:100400000CC06C817D818E819F810E94454CDC01F6
:10041000CB01BC0189810E94A24F000027960FB634
:10042000F894DEBF0FBECDBFDF91CF910895CF937B
:10043000DF9300D0CDB7DEB79B838A83CE010296CF
:10044000FC018081882389F01982CE010296FC018B
:100450008081815089838981882F90E0A0E0B0E07D
:1004600040E050E0BC01CD0154D000000F900F904F
:100470000F90DF91CF910895CF93DF9300D000D0FC
:1004800000D0CDB7DEB76E837F83888799871C82C3
:100490001B821A8219821D828E819F81A885B9854F
:1004A000689412F8B695A795979587951694D1F705
:1004B0009C838B838E8187708D838B819C818A52F4
:1004C0009D4FFC0140818D81282F30E081E090E03C
:1004D00002C0880F991F2A95E2F78423882F90E0A5
:1004E0009A83898389819A81892B31F08E819F81BA
:1004F00001969A83898302C01A82198289819A811E
:1005000029960FB6F894DEBF0FBECDBFDF91CF9115
:100510000895CF93DF9300D000D000D01F92CDB7C5
:10052000DEB76D837E838F8398875A8749871A82C7
:1005300019821B821C828D819E81AF81B88568944F
:1005400012F8B695A795979587951694D1F79A8343
:1005500089838D8187708B838B81282F30E081E0A8
:1005600090E002C0880F991F2A95E2F78C83898555
:100570009A85892B99F48C8180958C8389819A81C5
:100580008A529D4FFC0190818C81292F28238981DB
:100590009A818A529D4FFC0120830FC089819A81E4
:1005A0008A529D4FFC0190818C81292F282B8981B3
:1005B0009A818A529D4FFC01208300002A960FB633
:1005C000F894DEBF0FBECDBFDF91CF910895CF93DA
:1005D000DF9300D000D01F921F92CDB7DEB76983A2
:1005E0007A838B839C832D833E834F8358878D81B1
:1005F0009E812981BC01822F0E94A24F0000289673
:100600000FB6F894DEBF0FBECDBFDF91CF91089536
:10061000CF93DF9300D000D000D0CDB7DEB79D835D
:100620008C837F836E83598748878C819D818C550D
:100630009E4F9A83898389819A81FC0184918B835F
:100640008B81882F90E0092E000CAA0BBB0B019721
:10065000A109B10982319105A105B10508F051C286
:10066000FC018827E95CFC4F8F4F0C94C35A490367
:1006700053035D038703B1038105DB03F103070423
:1006800031045B048504AF04D904810503052D05FD
:10069000570584E490E0FC01208184E490E0206828
:1006A000FC0120832EC284E490E0FC01208184E4DC
:1006B00090E02062FC01208324C280E890E0FC01ED
:1006C0008081282F2C7F80E890E02260FC0120832D
:1006D00081E890E0FC018081982F907E8E81292F07
:1006E000282B81E890E02061FC01208386E890E0DF
:1006F00028853985FC013183208380E890E0FC0166
:10070000208180E890E02068FC012083FAC180E825
:1007100090E0FC018081282F2C7F80E890E022600F
:10072000FC01208381E890E0FC018081982F907E7D
:100730008E81292F282B81E890E02061FC01208305
:1007400086E890E028853985FC013183208380E8A4
:1007500090E0FC01208180E890E02062FC01208391
:10076000D0C180E890E0FC018081282F2C7F80E8B8
:1007700090E02260FC01208381E890E0FC01808110
:10078000982F907E8E81292F282B81E890E0206180
:10079000FC01208386E890E028853985FC013183BF
:1007A000208380E890E0FC01208180E890E02860D0
:1007B000FC012083A6C180EB90E0FC01208180EB4E
:1007C00090E02068FC01208381EB90E0FC018081B7
:1007D000382F387F2E8181EB90E0232BFC01208382
:1007E00090C180EB90E0FC01208180EB90E02062E2
:1007F000FC01208381EB90E0FC018081382F387F61
:100800002E8181EB90E0232BFC0120837AC180E9CB
:1008100090E0FC018081282F2C7F80E990E022600D
:10082000FC01208381E990E0FC018081982F907E7B
:100830008E81292F282B81E990E02061FC01208303
:1008400086E990E028853985FC013183208380E9A1
:1008500090E0FC01208180E990E02068FC01208389
:1008600050C180E990E0FC018081282F2C7F80E935
:1008700090E02260FC01208381E990E0FC0180810E
:10088000982F907E8E81292F282B81E990E020617E
:10089000FC01208386E990E028853985FC013183BD
:1008A000208380E990E0FC01208180E990E02062D3
:1008B000FC01208326C180E990E0FC018081282F83
:1008C0002C7F80E990E02260FC01208381E990E0A8
:1008D000FC018081982F907E8E81292F282B81E921
:1008E00090E02061FC01208386E990E0288539852D
:1008F000FC013183208380E990E0FC01208180E9C4
:1009000090E02860FC012083FCC080EA90E0FC01BC
:100910008081282F2C7F80EA90E02260FC012083D8
:1009200081EA90E0FC018081982F907E8E81292FB2
:10093000282B81EA90E02061FC01208386EA90E088
:1009400028853985FC013183208380EA90E0FC0111
:10095000208180EA90E02068FC012083D2C080EAF8
:1009600090E0FC018081282F2C7F80EA90E02260BB
:10097000FC01208381EA90E0FC018081982F907E29
:100980008E81292F282B81EA90E02061FC012083B1
:1009900086EA90E028853985FC013183208380EA4E
:1009A00090E0FC01208180EA90E02062FC0120833D
:1009B000A8C080EA90E0FC018081282F2C7F80EA8B
:1009C00090E02260FC01208381EA90E0FC018081BC
:1009D000982F907E8E81292F282B81EA90E020612C
:1009E000FC01208386EA90E028853985FC0131836B
:1009F000208380EA90E0FC01208180EA90E028607A
:100A0000FC0120837EC080E291E0FC018081282FE0
:100A10002C7F80E291E02260FC01208381E291E062
:100A2000FC018081982F907E8E81292F282B81E2D6
:100A300091E02061FC01208386E291E028853985E0
:100A4000FC013183208380E291E0FC01208180E27F
:100A500091E02068FC01208354C080E291E0FC0119
:100A60008081282F2C7F80E291E02260FC0120838E
:100A700081E291E0FC018081982F907E8E81292F68
:100A8000282B81E291E02061FC01208386E291E045
:100A900028853985FC013183208380E291E0FC01C7
:100AA000208180E291E02062FC0120832AC080E264
:100AB00091E0FC018081282F2C7F80E291E0226070
:100AC000FC01208381E291E0FC018081982F907EDF
:100AD0008E81292F282B81E291E02061FC01208367
:100AE00086E291E028853985FC013183208380E20C
:100AF00091E0FC01208180E291E02860FC012083EC
:100B000000008C8160E00E94BB52000029960FB665
:100B1000F894DEBF0FBECDBFDF91CF910895CF9384
:100B2000DF9300D000D0CDB7DEB79C838B837E836C
:100B30006D831A82198289819A8126960FB6F8945C
:100B4000DEBF0FBECDBFDF91CF910895CF93DF936E
:100B500000D000D01F921F92CDB7DEB79E838D8349
:100B600078876F831C821B828D819E81892B19F46B
:100B70008FEF9FEFB1C08F819885892B19F48FEF8C
:100B80009FEFAAC08091030290910402A0910502F8
:100B9000B09106028E3F9F4FAF4FBF4F61F48FEF72
:100BA0009FEFDC018093030290930402A09305025F
:100BB000B09306020FC08091030290910402A091AD
:100BC0000502B09106022F813885F9018083918357
:100BD000A283B3838091030290910402A091050245
:100BE000B09106028D819E81FC0182819381FC017E
:100BF00080819181A281B38180932203909323030A
:100C0000A0932403B09325038D819E81FC018281F2
:100C10009381FC0184819581A681B781809326030D
:100C200090932703A0932803B09329038D819E817D
:100C3000FC0182819381FC0180859185A285B38529
:100C400080932A0390932B03A0932C03B0932D033E
:100C50008D819E81FC0182819381FC018485958533
:100C6000A685B78580932E0390932F03A09330031E
:100C7000B093310310923203109233031092340375
:100C8000109235030E94A1121A8219821A821982C7
:100C900010C089819A81880F991F81529D4F2CEC39
:100CA00032E1FC013183208389819A8101969A8304
:100CB000898389819A81029760F34AD79C838B83C9
:100CC0008B819C81892B31F481E090E0909321030A
:100CD000809320038B819C8128960FB6F894DEBF09
:100CE0000FBECDBFDF91CF910895CF93DF93CDB7E6
:100CF000DEB72C970FB6F894DEBF0FBECDBF698765
:100D00007A878B879C871A8219821B821C821D829C
:100D10001E821F8290911E0381E0992309F080E0DA
:100D2000888782E090E09093210380932003898557
:100D30009A85AB85BC85892B8A2B8B2B59F48091A6
:100D40001E03882339F480911F03882319F481E05E
:100D500090E002C080E090E08F8330C06AE070E0F5
:100D600080E090E00E945E4E8B819C81AD81BE81CF
:100D7000805F984DAF4FBF4F8B839C83AD83BE8305
:100D800089859A85AB85BC858F3F9F4FAF4FBF4FFD
:100D900081F02B813C814D815E8189859A85AB856F
:100DA000BC8582179307A407B50718F481E090E08B
:100DB00002C080E090E08F8380E012D780911E0314
:100DC000882339F480911F03882319F48F818823A5
:100DD00029F283E090E090932103809320038F8198
:100DE000882321F08CE99FEF9A8389838885882363
:100DF00011F00E94C81389819A812C960FB6F8943D
:100E0000DEBF0FBECDBFDF91CF910895CF93DF93AB
:100E1000CDB7DEB761970FB6F894DEBF0FBECDBF7A
:100E20009D878C874E875F87688B798B1A821982A2
:100E300081E08B838C859D858F3F910521F018F093
:100E40008FEF9FEF62C08091200390912103039761
:100E500031F08091200390912103019731F484E0D7
:100E600090E090932103809320038C859D850297C9
:100E700008F58C859D85880F991F81529D4FFC0137
:100E800080819181892BB1F00E9482189D838C838F
:100E90008C819D81029771F48C859D85880F991FA7
:100EA00081529D4FFC01208131818C859D85F90106
:100EB00019958B838C859D859F838E832C853D859D
:100EC0008E859F85A889B989A901BC01CD011DD650
:100ED000DC01CB0188879987AA87BB878B81882310
:100EE00071F088859985AA85BB852E813F81AC01EB
:100EF000BD01C9010E9452189A83898304C08E8162
:100F00009F810E94C41889819A8161960FB6F894D6
:100F1000DEBF0FBECDBFDF91CF910895CF93DF939A
:100F20001F921F92CDB7DEB71A82198280E058D681
:100F30009A83898389819A810F900F90DF91CF9155
:100F40000895CF93DF931F921F92CDB7DEB71A8219
:100F5000198286E090E09093210380932003D0D6FD
:100F60009A83898344E050E060E070E08FED92E086
:100F70000E94F15A0E945A131092210310922003EA
:100F800089819A810F900F90DF91CF910895CF932F
:100F9000DF93CDB7DEB780911F03DF91CF91089526
:100FA000CF93DF93CDB7DEB780913603DF91CF913A
:100FB0000895CF93DF9300D01F92CDB7DEB769833A
:100FC0007A838B839C8389819A81AB81BC81809356
:100FD000030290930402A0930502B093060280E0FE
:100FE00090E00F900F900F900F90DF91CF910895A8
:100FF000CF92DF92EF92FF920F931F93CF93DF93E5
:10100000CDB7DEB780910002682F83E046D980918A
:101010000102682F84E041D965E070E080E090E053
:101020002BDA9093F0068093EF0680910202882FCE
:1010300090E0A0E0B0E0BC01CD010E94764C9B01A5
:10104000AC018091EF069091F006BA01A9019BD9FD
:1010500023EE32E0F901828D938DA48DB58D01963A
:10106000A11DB11DF901828F938FA48FB58FF90156
:10107000828D938DA48DB58DBC01CD010E94764CDF
:101080006B017C0183EE92E0FC01868D978DA0A11F
:10109000B1A103EE12E09C01AD01C701B6010E94AF
:1010A000044DDC01CB01F801868B978BA08FB18FAB
:1010B0000000DF91CF911F910F91FF90EF90DF9093
:1010C000CF900895EF92FF920F931F93CF93DF93EA
:1010D000CDB7DEB784E090E03FD223EE32E080E08F
:1010E00090E0A0E8BFEBF90182A393A3A4A3B5A36A
:1010F00023EE32E08FE692E1A3E8BAE3F901868FAE
:10110000978FA0A3B1A323EE32E089E495E1A7E68F
:10111000BCEBF90184839583A683B78323EE32E089
:101120008BEB9BE2AEEBBBEAF90180879187A2874C
:10113000B38723EE32E081E897EBA7E3B8ECF9013F
:1011400084879587A687B78723EE32E082E097E110
:10115000A8EBB4E1F901808B918BA28BB38B83EE6A
:1011600092E02AE033E0FC013383228386E193E0BE
:1011700090930B0380930A0386E292E09093170307
:101180008093160386E292E09093190380931803EC
:1011900086E292E090931B0380931A0386E292E02A
:1011A00090931D0380931C0323EE32E083EE92E0C4
:1011B000FC01828193812C5E3F4FFC0135832483A7
:1011C00023EE32E083EE92E0FC01828193812C5F7A
:1011D0003F4FFC013383228323EE32E083EE92E023
:1011E000FC01828193812A5E3F4FFC013783268375
:1011F0001092E10681E090E0A0E0B0E08093E2068A
:101200009093E306A093E406B093E50661E083E0E3
:1012100022D881E08093E6061092D90681E090E022
:10122000A0E0B0E08093DA069093DB06A093DC06A2
:10123000B093DD0661E084E00ED881E08093DE06A5
:101240001092E90681E090E0A0E0B0E08093EA0629
:101250009093EB06A093EC06B093ED06E12CF12CF5
:10126000870120E030E0A90165E070E080E090E0D7
:101270002ED89093F0068093EF0681E08093EE06DF
:101280000000DF91CF911F910F91FF90EF90089593
:10129000CF93DF93CDB7DEB78091E106882319F4B1
:1012A00081E08093E1068091D906882319F481E0DA
:1012B0008093D9068091E906882391F581E0809397
:1012C000E9068091EA069091EB06A091EC06B091B8
:1012D000ED060197A105B10519F58091EE06882369
:1012E000F9F065E070E080E090E0C6D89093F006F9
:1012F0008093EF068091EF069091F00640E050E079
:10130000BA0141D865E070E080E090E0B5D89093F4
:10131000F0068093EF068091EF069091F00687D853
:101320000000DF91CF910895CF93DF93CDB7DEB763
:101330002E970FB6F894DEBF0FBECDBF80E290E0CF
:101340009E838D8319821A821B821C828D819E81CD
:10135000809741F42AD0DC01CB0189839A83AB8347
:10136000BC8314C080E090E0A0EFBFE78B879C8730
:10137000AD87BE871F82188619861A868F81988549
:10138000A985BA8589839A83AB83BC8389819A8135
:10139000AB81BC81BC01CD012E960FB6F894DEBFA7
:1013A0000FBECDBFDF91CF910895CF93DF9300D0D3
:1013B0001F92CDB7DEB780E090E0A0E8BFE7898359
:1013C0009A83AB83BC8389819A81AB81BC81BC0148
:1013D000CD010F900F900F900F90DF91CF91089556
:1013E000CF93DF93CDB7DEB72E970FB6F894DEBF5D
:1013F0000FBECDBF80E290E09E838D8319821A825A
:101400001B821C828D819E81809741F42AD0DC0151
:10141000CB0189839A83AB83BC8314C080E090E0C6
:10142000A0EFBFEF8B879C87AD87BE871F82188692
:1014300019861A868F819885A985BA8589839A83AA
:10144000AB83BC8389819A81AB81BC81BC01CD0116
:101450002E960FB6F894DEBF0FBECDBFDF91CF91B1
:101460000895CF93DF9300D01F92CDB7DEB780E011
:1014700090E0A0E8BFEF89839A83AB83BC83898126
:101480009A81AB81BC81BC01CD010F900F900F9070
:101490000F90DF91CF910895CF93DF93CDB7DEB753
:1014A0002E970FB6F894DEBF0FBECDBF80E290E05E
:1014B0009E838D8319821A821B821C828D819E815C
:1014C000809741F42AD0DC01CB0189839A83AB83D6
:1014D000BC8314C080E090E0A8EFBFEF8B879C87AF
:1014E000AD87BE871F82188619861A868F819885D8
:1014F000A985BA8589839A83AB83BC8389819A81C4
:10150000AB81BC81BC01CD012E960FB6F894DEBF35
:101510000FBECDBFDF91CF910895CF93DF9300D061
:101520001F92CDB7DEB719821A821B821C8280E01F
:1015300090E0A0ECBFEF89839A83AB83BC83898161
:101540009A81AB81BC81BC01CD010F900F900F90AF
:101550000F90DF91CF910895CF93DF931F921F9249
:10156000CDB7DEB79A83898397DFDC01CB01809307
:10157000FD069093FE06A093FF06B0930007CDDF13
:10158000DC01CB018093F1069093F206A093F30661
:10159000B093F406C9DEDC01CB018093F906909389
:1015A000FA06A093FB06B093FC06FFDEDC01CB013C
:1015B0008093F5069093F606A093F706B093F8068D
:1015C0000FDFDC01CB018093010790930207A0930A
:1015D0000307B093040745DFDC01CB0180930507C7
:1015E00090930607A0930707B093080700000F9099
:1015F0000F90DF91CF9108950F931F93CF93DF93B7
:1016000000D000D000D01F92CDB7DEB79A83898377
:101610004B835C836D837E830F83188729873A878A
:1016200029813A818B819C81AD81BE81F9018083C2
:101630009183A283B38389819A819C012C5F3F4F60
:101640008F819885A985BA85F90180839183A283CA
:10165000B38300002A960FB6F894DEBF0FBECDBF4D
:10166000DF91CF911F910F910895EF92FF920F9309
:101670001F93CF93DF93CDB7DEB76A970FB6F89479
:10168000DEBF0FBECDBF6D8B7E8B8F8B988F5A8F39
:10169000498F19821A821B821C82F894898D9A8D37
:1016A000892B09F00BC18091430390914403A091D1
:1016B0004503B09146032D893E894F89588D2817DF
:1016C00039074A075B07C8F08091430390914403B0
:1016D000A0914503B09146032D893E894F89588DCD
:1016E00079018A01E81AF90A0A0B1B0BD801C70114
:1016F0008D839E83AF83B88718C0809143039091F8
:101700004403A0914503B09146032D893E894F893A
:10171000588D79018A01E81AF90A0A0B1B0BD801C6
:10172000C7018D839E83AF83B887809147039091D3
:101730004803A0914903B0914A032D813E814F8116
:101740005885820F931FA41FB51F898B9A8BAB8B73
:10175000BC8B8091470390914803A0914903B091BD
:101760004A0329893A894B895C89281739074A072E
:101770005B0798F480914B0390914C03A0914D032B
:10178000B0914E030196A11DB11D80934B03909320
:101790004C03A0934D03B0934E0389899A89AB897A
:1017A000BC898093470390934803A0934903B09367
:1017B0004A0320914B0330914C0340914D035091CB
:1017C0004E038091470390914803A0914903B09143
:1017D0004A0389019A01AC01BD018BE393E00CDF60
:1017E0008D899E89AF89B88D80934303909344037C
:1017F000A0934503B09346032D813E814F815885C8
:1018000088EE93E0DC010E94CB5A9B01AC018091F1
:101810004F0390915003A0915103B0915203820F56
:10182000931FA41FB51F80934F0390935003A09361
:101830005103B093520380914F0390915003A091B4
:101840005103B091520389839A83AB83BC83809107
:10185000030290910402A0910502B09106028F3F0D
:101860009F4FAF4FBF4F09F43CC18091030290914D
:101870000402A0910502B09106028E3F9F4FAF4F28
:10188000BF4F09F42EC12091470330914803409186
:10189000490350914A038091030290910402A09160
:1018A0000502B091060261E0281739074A075B0775
:1018B00008F460E0862F8093360313C119861A86D8
:1018C0001B861C861D861E861F86188A809107022D
:1018D00090910802A0910902B0910A028F3F9F4F98
:1018E000AF4FBF4FE1F08091070290910802A091A5
:1018F0000902B0910A029C01AD012F5F3F4F4F4F8B
:101900005F4F8D899E89AF89B88DBC01CD010E9442
:10191000A15ADC01CB018D8B9E8BAF8BB88F809150
:10192000430390914403A0914503B09146032D8950
:101930003E894F89588D281739074A075B0708F4F5
:1019400047C08091430390914403A0914503B09117
:1019500046032D893E894F89588D79018A01E81AFD
:10196000F90A0A0B1B0BD801C70189879A87AB8735
:10197000BC8720914303309144034091450350912B
:1019800046038D899E89AF89B88D79018A01E81A4D
:10199000F90A0A0B1B0BD801C7018D879E87AF87F9
:1019A000B88B2D853E854F85588989859A85AB856D
:1019B000BC8582179307A407B50728F019861A86F5
:1019C0001B861C864BC01D861E861F86188A46C035
:1019D0008091430390914403A0914503B091460345
:1019E0002D893E894F89588D79018A01E81AF90AB3
:1019F0000A0B1B0BD801C70189879A87AB87BC8765
:101A00002091430330914403409145035091460394
:101A10008D899E89AF89B88D79018A01E81AF90A02
:101A20000A0B1B0BD801C7018D879E87AF87B88B28
:101A30002D853E854F85588989859A85AB85BC85DE
:101A400082179307A407B50728F019861A861B8604
:101A50001C8604C01D861E861F86188A89859A8565
:101A6000AB85BC85892B8A2B8B2BE1F029853A85A8
:101A70004B855C8588EE93E0DC010E94CB5A9B018C
:101A8000AC0180914F0390915003A0915103B0910C
:101A90005203820F931FA41FB51F89839A83AB83C0
:101AA000BC831FC0E0904F03F0905003009151039E
:101AB000109152032D853E854F85588988EE93E01D
:101AC000DC010E94CB5ADC01CB01A8019701281B45
:101AD000390B4A0B5B0BDA01C90189839A83AB830B
:101AE000BC83789489819A81AB81BC81BC01CD0192
:101AF0006A960FB6F894DEBF0FBECDBFDF91CF91CF
:101B00001F910F91FF90EF900895CF93DF9300D036
:101B100000D0CDB7DEB769837A838B839C835E83E5
:101B20004D832D813E8189819A81AB81BC81A90140
:101B3000BC01CD019ADDDC01CB01BC01CD012696B3
:101B40000FB6F894DEBF0FBECDBFDF91CF910895E1
:101B5000CF93DF9300D000D0CDB7DEB71C821B82BD
:101B60001E821D821A821982109237031092380346
:101B70001092390310923A039E012B5F3F4FCE0122
:101B80000396B9010E9483482D813E818B819C81FF
:101B9000B9010E9464389A83898389819A81892B4B
:101BA00019F089819A8113C09E012B5F3F4FCE01AE
:101BB0000396B9010E94A7482D813E818B819C81AB
:101BC000B9010E9426179A83898389819A81269672
:101BD0000FB6F894DEBF0FBECDBFDF91CF91089551
:101BE000CF93DF9300D01F921F92CDB7DEB78D83C6
:101BF0001A8219821B8260E070E0CB010E945E4E67
:101C00001C820E942E3A9A83898389819A81892B2A
:101C100039F089819A81029619F081E08B830DC099
:101C20008C81882321F489819A81029619F081E0C0
:101C300090E002C080E090E08C838B818823E1F407
:101C40000E9459179A83898389819A81892B39F057
:101C500089819A81029619F081E08B830DC08C8175
:101C6000882321F489819A81029619F081E090E01D
:101C700002C080E090E08C838B818823E1F40E9495
:101C8000B9399A83898389819A81892B39F089812D
:101C90009A81029619F081E08B830DC08C81882394
:101CA00021F489819A81029619F081E090E002C0C6
:101CB00080E090E08C838D81882391F060E070E07B
:101CC000CB010E945E4E8B81882319F48C8188237E
:101CD00019F481E090E002C080E090E08B8302C0C4
:101CE00081E08B838B81882309F48ACF89819A8153
:101CF0000F900F900F900F900F90DF91CF9108955C
:101D0000CF93DF9300D000D01F921F92CDB7DEB7E4
:101D100018861F8280913603882329F060E070E0E6
:101D2000CB010E94A5180E9482189E838D83198280
:101D30001A821B821C8218C06AE070E080E090E08A
:101D40000E945E4E89819A81AB81BC81805F984DF3
:101D5000AF4FBF4F89839A83AB83BC8381E040DF61
:101D60000E9482189E838D8389819A81AB81BC8178
:101D700081159D42A143B14020F48D819E81892B24
:101D8000D9F60E948D1898878F830E94C93B988747
:101D90008F8310921E0310921F0310922203109241
:101DA000230310922403109225031092260310920D
:101DB0002703109228031092290310922A031092ED
:101DC0002B0310922C0310922D0310922E031092CD
:101DD0002F031092300310923103109232031092AD
:101DE000330310923403109235038EEF9FEFAFEF61
:101DF000BFEF8093030290930402A0930502B09377
:101E000006021092360348E050E060E070E08BE399
:101E100093E00E94F15A10924303109244031092EF
:101E20004503109246031092470310924803109204
:101E3000490310924A0310924B0310924C031092E4
:101E40004D0310924E0310924F03109250031092C4
:101E50005103109252038F81988528960FB6F894FB
:101E6000DEBF0FBECDBFDF91CF910895CF93DF933B
:101E700000D000D01F921F92CDB7DEB780915503DE
:101E800090915603A0915703B09158039A83898388
:101E900089819A81892B09F431C180915903882362
:101EA00069F48091550390915603A0915703B09126
:101EB0005803892B8A2B8B2B09F420C180916D0349
:101EC00090916E03029709F019C1809177038823DE
:101ED00009F014C189819A81FC0180819181A281DC
:101EE000B3818B839C83AD83BE83809173038823EE
:101EF00009F4F0C08091660390916703892B31F05B
:101F00008091660390916703029719F481E090E055
:101F100002C080E090E08F83809166039091670318
:101F2000019731F08091660390916703029719F44D
:101F300081E090E002C080E090E088878F81882374
:101F400009F462C080915A0390915B03A0915C03F5
:101F5000B0915D039C01AD016B817C818D819E817F
:101F60000E94004D8823B4F080916F03909170031C
:101F7000A0917103B091720320915A0330915B03D9
:101F800040915C0350915D03BC01CD010E94414C26
:101F9000882344F180915A0390915B03A0915C03E4
:101FA000B0915D039C01AD016B817C818D819E812F
:101FB0000E94004D181644F580916F0390917003B4
:101FC000A0917103B091720320915A0330915B0389
:101FD00040915C0350915D03BC01CD010E94414CD6
:101FE000882391F48091620390916303A09164032C
:101FF000B0916503892B8A2B8B2B19F481E0809398
:10200000760381E0809377038885882309F462C092
:1020100080915A0390915B03A0915C03B0915D03A2
:102020009C01AD016B817C818D819E810E94414C20
:102030008823B4F480916F0390917003A091710391
:10204000B091720320915A0330915B0340915C037D
:1020500050915D03BC01CD010E94004D882344F5E1
:1020600080915A0390915B03A0915C03B0915D0352
:102070009C01AD016B817C818D819E810E94414CD0
:10208000882341F580916F0390917003A0917103B3
:10209000B091720320915A0330915B0340915C032D
:1020A00050915D03BC01CD010E94004D181694F4BF
:1020B0008091620390916303A0916403B0916503E2
:1020C000892B8A2B8B2B19F481E08093760381E096
:1020D000809377039091770381E0992309F080E062
:1020E000809373038B819C81AD81BE8180936F034C
:1020F00090937003A0937103B0937203000028962D
:102100000FB6F894DEBF0FBECDBFDF91CF9108951B
:10211000CF93DF931F92CDB7DEB7198280916D0305
:1021200090916E03892BC9F4109268031092770383
:1021300080910F02882371F182E090E090936E030A
:1021400080936D0310920F028091690390916A034E
:10215000892B01F581E089831DC010920F028091C7
:102160006803882349F01092760310926E03109250
:102170006D03109268030EC08091690390916A0309
:10218000892B19F481E0898305C0809177038983C5
:102190001092770380916D0390916E0382309105C8
:1021A000F9F08330910530F4009761F0019709F45C
:1021B0004CC1AEC18330910509F4EEC0049709F417
:1021C0006AC0A6C180910F02882309F4ACC182E0E5
:1021D00090E090936E0380936D0310920F02A3C161
:1021E0008981882309F4A1C18091620390916303DE
:1021F000A0916403B0916503181619061A061B0610
:10220000ECF48091690390916A030197B9F480918D
:10221000620390916303A0916403B091650380937E
:10222000780390937903A0937A03B0937B0383E0C0
:1022300090E090936E0380936D0377C180910B02C1
:1022400090910C02A0910D02B0910E02892B8A2B65
:102250008B2BD1F081E08093760380910B029091DB
:102260000C02A0910D02B0910E028093780390931E
:102270007903A0937A03B0937B0384E090E090937A
:102280006E0380936D0351C11092760310926E031A
:1022900010926D034AC18091780390917903A091C7
:1022A0007A03B0917B03892B8A2B8B2B99F0809139
:1022B000780390917903A0917A03B0917B03019701
:1022C000A109B1098093780390937903A0937A03CD
:1022D000B0937B038091780390917903A0917A0366
:1022E000B0917B03892B8A2B8B2B09F020C1809125
:1022F0006B0390916C03019739F41092760310925E
:102300006E0310926D0313C180915E0390915F0381
:10231000A0916003B0916103892B8A2B8B2BC9F0AC
:102320001092760380915E0390915F03A091600309
:10233000B09161038093780390937903A0937A031B
:10234000B0937B0381E090E090936E0380936D03E4
:10235000EEC089818823B9F080910B0290910C0224
:10236000A0910D02B0910E028093780390937903AF
:10237000A0937A03B0937B0384E090E090936E0384
:1023800080936D03D4C01092760382E090E0909326
:102390006E0380936D03CBC0809178039091790395
:1023A000A0917A03B0917B03892B8A2B8B2B99F018
:1023B0008091780390917903A0917A03B0917B0387
:1023C0000197A109B1098093780390937903A093B1
:1023D0007A03B0937B038091780390917903A09165
:1023E0007A03B0917B03892B8A2B8B2B09F0A1C038
:1023F00080910B0290910C02A0910D02B0910E02FF
:10240000892B8A2B8B2BD1F081E0809376038091EE
:102410000B0290910C02A0910D02B0910E028093DC
:10242000780390937903A0937A03B0937B0384E0BD
:1024300090E090936E0380936D037BC010927603BF
:1024400010926E0310926D0374C080917803909186
:102450007903A0917A03B0917B03892B8A2B8B2B74
:1024600099F08091780390917903A0917A03B091CB
:102470007B030197A109B1098093780390937903B5
:10248000A0937A03B0937B038091780390917903B2
:10249000A0917A03B0917B03892B8A2B8B2B09F0B7
:1024A0004AC08981882369F180910B0290910C02C6
:1024B000A0910D02B0910E02892B8A2B8B2BD1F0AB
:1024C00081E08093760380910B0290910C02A091A1
:1024D0000D02B0910E028093780390937903A0933C
:1024E0007A03B0937B0384E090E090936E03809333
:1024F0006D0321C01092760310926E0310926D034B
:102500001AC082E090E090936E0380936D0313C035
:1025100010927603109277031092680310926E0364
:1025200010926D0309C0000007C0000005C0000044
:1025300003C0000001C0000000000F90DF91CF91A8
:102540000895CF93DF93CDB7DEB710926F0310924B
:1025500070031092710310927203109273038091B2
:10256000690390916A0390937503809374031092AA
:1025700076031092770310927803109279031092E9
:102580007A0310927B0310926E0310926D0380E029
:1025900090E0DF91CF910895CF93DF9300D0CDB736
:1025A000DEB79B838A838A819B81892B09F05BC07C
:1025B0002091690330916A038091740390917503AF
:1025C00041E02817390709F440E049838091690305
:1025D00090916A0390937503809374038981882393
:1025E00081F0109276031092770310927803109284
:1025F000790310927A0310927B0310926E0310926B
:102600006D038091690390916A03019761F5809150
:102610006D0390916E03892B21F480910F02882322
:1026200091F480916D0390916E030197E1F4809194
:10263000780390917903A0917A03B0917B0301977D
:10264000A105B10581F410927803109279031092DC
:102650007A0310927B0310920F0282E090E0909335
:102660006E0380936D038091690390916A030197D3
:1026700051F480915303909154032A813B81281790
:10268000390709F4F3DB8A819B81892B21F440DD32
:1026900010927D0307C080917D03882319F08091FB
:1026A0007C0302C0809176030F900F900F90DF9112
:1026B000CF910895CF93DF93CDB7DEB710926F031C
:1026C00010927003109271031092720310927303B0
:1026D00010926E0310926D031092750310927403A2
:1026E00010925403109253031092760310927703C2
:1026F000109278031092790310927A0310927B0360
:1027000010927C0310927D03109255031092560391
:1027100010925703109258031092590310925A03C3
:1027200010925B0310925C0310925D0388EE93E0BD
:10273000A0E0B0E080930B0290930C02A0930D02F6
:10274000B0930E0210925E0310925F03109260032A
:10275000109261031092620310926303109264035B
:1027600010926503109267031092660381E08093D4
:102770000F021092680310926A031092690310927C
:102780006C0310926B0380E090E0DF91CF9108958D
:10279000CF93DF93CDB7DEB78091690390916A0341
:1027A000892B39F580910F02882359F080916803B5
:1027B000882339F481E080937C0381E080937D035A
:1027C00018C080916803282F30E090910F0281E0BB
:1027D000992309F080E0882F90E082239323892BAE
:1027E00031F010927C0381E080937D0302C010924F
:1027F0007D030000DF91CF910895CF93DF93CDB794
:10280000DEB72C970FB6F894DEBF0FBECDBF9E8308
:102810008D8378876F835A8749873C872B871A82F5
:1028200019820E94BE3B9C838B838D819E81FC011B
:10283000808191810E94473D8B859C8560E070E09E
:102840000E94273B9C018F819885FC013183208366
:102850000E940D3B9C0189859A85FC013183208370
:102860008F819885FC0180819181892BE1F08F8196
:102870009885FC01208131818B819C81B9010E9466
:1028800045419C018D819E81FC01318320838D8196
:102890009E81FC0180819181892B49F486EF9FEF15
:1028A0009A83898304C088EF9FEF9A838983898103
:1028B0009A812C960FB6F894DEBF0FBECDBFDF9184
:1028C000CF910895CF93DF9300D000D0CDB7DEB77E
:1028D0009A8389837C836B835E834D8389819A810C
:1028E000892B21F089819A810E94473D8D819E81AB
:1028F000FC011182108280E090E026960FB6F894D9
:10290000DEBF0FBECDBFDF91CF910895CF93DF9390
:1029100000D000D0CDB7DEB79A8389837C836B83E8
:102920005E834D838D819E8122E030E0FC01318306
:1029300020838FEF9FEF26960FB6F894DEBF0FBE71
:10294000CDBFDF91CF910895CF93DF9300D01F9239
:10295000CDB7DEB78B836C8385E090E09A83898363
:102960008B81813F18F01A82198229C08B81843EA5
:1029700040F08B81813F28F481E090E09A83898345
:102980001EC08B81833D18F08B81833E48F08B8184
:10299000803C59F48C81882341F08C81833028F469
:1029A00082E090E09A8389830AC08B81883C38F06A
:1029B0008B81833D20F483E090E09A838983898131
:1029C0009A810F900F900F900F90DF91CF91089503
:1029D000CF93DF93CDB7DEB767970FB6F894DEBF1E
:1029E0000FBECDBF998B888B7B8B6A8B5D8B4C8B9D
:1029F0003F8B2E8B888999899C838B838B819C81CB
:102A0000FC0180818D8319828D81803C49F48A8903
:102A10009B89029728F08B819C81FC0181818983AD
:102A200080917F0390918003892B09F455C06981BF
:102A30008D818ADF9B878A871A828A859B85059785
:102A4000C1F18A859B85880F991F8B579C4FFC018C
:102A5000808191819D878C871F861E868C859D85B0
:102A6000892B39F18D81882F90E02C853D85F901E6
:102A700019959F878E8721E08E859F85892B09F484
:102A800020E02A838A818823A1F08E859F85FC011E
:102A9000228133818C899D89FC01318320838E853D
:102AA0009F85FC01248135818E899F89FC013183BA
:102AB00020838A81882309F053C08C899D8926E868
:102AC00034E1FC01318320838E899F8929E136E13D
:102AD000FC013183208344C08D818F3FA9F5809113
:102AE0008503909186039F838E838C899D89FC0149
:102AF000118210828E899F89FC01118210828E8141
:102B00009F81892B69F12E813F818FEF90E0F90140
:102B100019959987888788859985892B09F18885F2
:102B20009985FC01228133818C899D89FC01318347
:102B3000208388859985FC01248135818E899F8930
:102B4000FC01318320830CC08C899D8922E634E10D
:102B5000FC01318320838E899F89FC0111821082C0
:102B6000000067960FB6F894DEBF0FBECDBFDF91B1
:102B7000CF910895CF93DF93CDB7DEB780917F03D8
:102B800090918003DF91CF910895CF93DF931F92AF
:102B90001F92CDB7DEB79A83898389819A819093FA
:102BA000800380937F0300000F900F90DF91CF91FF
:102BB0000895CF93DF93CDB7DEB780918103DF9186
:102BC000CF910895CF93DF931F92CDB7DEB789835E
:102BD000909181038981892B8093810300000F905C
:102BE000DF91CF910895CF93DF931F92CDB7DEB7DA
:102BF00089838981809590918103892380938103C2
:102C000000000F90DF91CF910895CF93DF93CDB760
:102C1000DEB780918203DF91CF910895CF93DF9348
:102C2000CDB7DEB78091830390918403DF91CF917C
:102C30000895CF93DF9300D000D000D01F92CDB77E
:102C4000DEB79E838D8378876F835A8749878D810E
:102C50009E81892B51F48F8198859C838B838B81F6
:102C60009C812FEFFC0120838DC08F8198859A83F2
:102C7000898389819A812EEFFC0120838D819E8139
:102C8000092E000CAA0BBB0B0F96A11DB11D8F3096
:102C90009105A105B10508F06FC0FC018827EC5A29
:102CA000F94E8F4F0C94C35AB616B016AA16A41636
:102CB0009E16921698168C16861680167B16691626
:102CC00063166F16751689819A8120E3FC012183B2
:102CD00059C089819A8129E2FC01218353C08981ED
:102CE0009A8122E2FC0121834DC089819A8120E2F0
:102CF000FC01218347C089819A81FC01118242C075
:102D000089819A8123E2FC0121833CC089819A81D7
:102D100021E2FC01218336C089819A8121E1FC01F5
:102D2000218330C089819A8127E2FC0121832AC056
:102D300089819A812AE2FC01218324C089819A81B8
:102D400020E1FC0121831EC089819A8124E2FC01DB
:102D5000218318C089819A8128E2FC01218312C055
:102D600089819A8126E2FC0121830CC089819A81A4
:102D700021E3FC01218306C089819A8120E2FC01C4
:102D8000218300C000002A960FB6F894DEBF0FBE64
:102D9000CDBFDF91CF910895CF93DF9300D000D0C6
:102DA00000D01F92CDB7DEB79E838D8378876F8367
:102DB0005A8749871A8219828F819885892BD9F180
:102DC0001C821B821C821B822BC02B813C81C9016F
:102DD000880F991F820F931F880F991F9C018F8165
:102DE0009885820F931FFC01808191812D813E8106
:102DF0002817390781F42B813C81C901880F991F5D
:102E0000820F931F880F991F9C018F819885820FD5
:102E1000931F9A8389838B819C8101969C838B83EA
:102E20002B813C8189859A852817390720F489816F
:102E30009A81892B51F289819A812A960FB6F8944A
:102E4000DEBF0FBECDBFDF91CF910895CF93DF934B
:102E500000D01F92CDB7DEB79A8389837C836B83C2
:102E600080917E03882319F084EF9FEF1BC049D522
:102E700054D590938603809385030E94182E0E9458
:102E8000302E90938A03809389030E94FF360E941C
:102E90000A37909388038093870381E080937E03B1
:102EA00080E090E00F900F900F900F90DF91CF9106
:102EB0000895EF92FF920F931F93CF93DF93CDB7B7
:102EC000DEB764970FB6F894DEBF0FBECDBF1A828F
:102ED00019821C821B8218861F821A8619861C86FC
:102EE0001B861E861D86188A1F861E821D821A8AD0
:102EF000198A1C8A1B8A80917E03882319F487EF24
:102F00009FEFC3C0BE01635F7F4F9E01255F3F4FB0
:102F1000AE01475F5F4FCE0107968B01BC0180E099
:102F200090E00E946B3A9A83898389819A81892BE8
:102F300049F089819A81049629F089819A810596C0
:102F400009F096C08F819885892B59F02B853C8597
:102F50008D859E85280F391F89859A85821793074D
:102F600028F488EF9FEF9A83898385C02F81388565
:102F70008B859C85820F931F9E838D836D857E85B7
:102F80009E012D5E3F4FAE014F5E5F4F8D819E8152
:102F90001FDD89899A89892B29F484EF9FEF9A8311
:102FA000898369C029893A896B857C858F81988559
:102FB000AE01415F5F4FF90119959C838B838B892B
:102FC0009C89892B09F451C08F859889892B09F434
:102FD0004CC01A8219822D853E858F8598892817C5
:102FE000390768F42F853889AE01455F5F4FBE0110
:102FF000675F7F4FCE01079600DC9A8389832D851A
:103000003E858D819E81A90160E070E00E94F15AA9
:1030100089819A81892B49F52F8138858B859C85FB
:10302000820F931F9E838D832B893C894F855889FE
:103030006D817E818B819C81F90119956F857889DD
:103040004B855C8529853A858F8198857B018A012E
:10305000AC016FEF7FEF81E090E00E9414399A831A
:10306000898389819A81892B29F489819A810DC06C
:10307000000001C000008F819885892B21F08F818D
:1030800098850E94473D89819A8164960FB6F8948D
:10309000DEBF0FBECDBFDF91CF911F910F91FF908B
:1030A000EF900895CF93DF9300D000D01F921F922E
:1030B000CDB7DEB79C838B834D835E836F83788728
:1030C0001A82198280917E03882319F487EF9FEF7B
:1030D00010C08D819E81AF81B885EB81FC8120E09D
:1030E000AC01BD01CF010E944C319A838983898153
:1030F0009A8128960FB6F894DEBF0FBECDBFDF9140
:10310000CF910895CF93DF93CDB7DEB780917F0342
:1031100090918003DF91CF910895CF93DF93CDB746
:10312000DEB70E9429370E947B3516D448E050E074
:1031300060E070E085E893E00E94F15A10927E030F
:1031400080E090E0DF91CF910895CF93DF9300D09E
:1031500000D0CDB7DEB76B837C838D839E838B815C
:103160009C81AD81BE81BC01CD010E940A329A834F
:10317000898389819A8126960FB6F894DEBF0FBEA7
:10318000CDBFDF91CF910895CF93DF9300D01F92F1
:103190001F92CDB7DEB79D838C8381E089838C81BC
:1031A0009D81298140E050E0BA010E944C319B830F
:1031B0008A838A819B810F900F900F900F900F90C0
:1031C000DF91CF910895CF93DF9300D01F921F928C
:1031D000CDB7DEB78D8381E090E09A8389830E942A
:1031E0007E3B9C838B838D81282F30E08B819C815B
:1031F00049815A81BA010E948D5ACB0141E02817BA
:10320000390708F040E0842F0F900F900F900F9037
:103210000F90DF91CF910895CF93DF9300D01F924D
:103220001F92CDB7DEB79C838B836D83A1D39A8326
:10323000898380919203482F50E029813A818B81C4
:103240009C81B9010E94E85A00000F900F900F90E6
:103250000F900F90DF91CF910895CF93DF93CDB76B
:10326000DEB72D970FB6F894DEBF0FBECDBF99879E
:1032700088877B876A875D874C871A8219822885B1
:1032800039858A859B85820F931F9C838B838B81D5
:103290009C819E838D831F820E9428348F838F811F
:1032A000882351F48C859D8522E030E0FC01318338
:1032B000208385EF9FEF2DC08D819E81FC01818150
:1032C000882331F08D819E81FC018181813019F448
:1032D00081E090E002C080E090E08F838F818823BE
:1032E00051F48C859D8522E030E0FC013183208300
:1032F0008EEF9FEF0EC081E090E047DC1A821982CA
:103300008C859D8528E030E0FC0131832083898114
:103310009A812D960FB6F894DEBF0FBECDBFDF9118
:10332000CF910895CF93DF9300D000D01F921F92CA
:10333000CDB7DEB79C838B837E836D8358874F83A5
:103340008B819C81892BA9F58D819E819A838983AC
:1033500089819A8148E050E060E070E00E94F15A73
:1033600089819A812FEFFC01208325E089819A8150
:10337000FC01218320E089819A81FC0122830E9443
:103380007E3B282F89819A81FC0123830E94753B13
:103390009C0189819A81FC013583248389819A81EA
:1033A00021E0FC01268389819A8121E0FC012783A9
:1033B00008C04F8158852D813E818B819C81B90148
:1033C00038DC000028960FB6F894DEBF0FBECDBFE4
:1033D000DF91CF910895CF93DF9300D000D01F925B
:1033E000CDB7DEB79B838A837D836C835F834E83F7
:1033F00081E089830E94283489838981882351F45C
:103400008E819F8122E030E0FC013183208385EFB3
:103410009FEF0CC080E090E0B8DB8E819F8121E0BF
:1034200030E0FC013183208380E090E027960FB6E6
:10343000F894DEBF0FBECDBFDF91CF910895CF933B
:10344000DF9300D000D0CDB7DEB79A8389837C8329
:103450006B835E834D838D819E8126E030E0FC018D
:103460003183208380E090E026960FB6F894DEBF8B
:103470000FBECDBFDF91CF910895CF93DF9300D0E2
:1034800000D01F921F92CDB7DEB79C838B837E83C3
:103490006D8358874F838D819E819A83898389812B
:1034A0009A8146E050E060E070E00E94F15A898124
:1034B0009A812FEFFC0120837CDB282F89819A8160
:1034C000FC012183A2DB282F89819A81FC012283C0
:1034D000A5DB9C0189819A81FC013583248300004E
:1034E00028960FB6F894DEBF0FBECDBFDF91CF9107
:1034F0000895CF93DF9300D000D01F92CDB7DEB7F1
:103500009B838A837D836C835F834E8319820E94B1
:103510000B3489838981882321F00E94A33B0E9478
:103520001C348E819F8122E030E0FC0131832083B6
:103530008BEF9FEF27960FB6F894DEBF0FBECDBF7F
:10354000DF91CF910895CF93DF93CDB7DEB72D975D
:103550000FB6F894DEBF0FBECDBF998788877B87F3
:103560006A875D874C871A821982288539858A8502
:103570009B85820F931F9C838B838B819C819E8371
:103580008D831F828D819E81FC0123818D819E818F
:10359000FC0184819581A681B781422FBC01CD01B8
:1035A000F6D18F838F81882351F48C859D8522E00D
:1035B00030E0FC013183208384EF9FEF09C08C85CC
:1035C0009D8521E030E0FC013183208389819A814F
:1035D0002D960FB6F894DEBF0FBECDBFDF91CF9111
:1035E0000895CF93DF93CDB7DEB72F970FB6F8943A
:1035F000DEBF0FBECDBF9B878A877D876C875F87C5
:103600004E871A8219822A853B858C859D85820F7B
:10361000931F9C838B838B819C819E838D831F82D0
:10362000A7D1998788878D819E81FC018181CBDD1F
:103630008F838F81882351F48E859F8522E030E02F
:10364000FC01318320838EEF9FEF22C0888599850E
:10365000892B51F48E859F8522E030E0FC01318377
:10366000208384EF9FEF14C08D819E81FC018181B6
:103670008093920380919203882F90E09C012F5FAA
:103680003F4F8E859F85FC013183208389819A81FC
:103690002F960FB6F894DEBF0FBECDBFDF91CF914E
:1036A0000895CF93DF93CDB7DEB72D970FB6F8947B
:1036B000DEBF0FBECDBF998788877B876A875D870E
:1036C0004C8788859985892B91F552D19A83898376
:1036D0008A859B859C838B838B819C8141E050E014
:1036E00060E070E00E94F15A8B819C812FEFFC0119
:1036F000208389819A81892B11F180919203882FEF
:1037000090E001962C853D8528173907C1F48A85FC
:103710009B8501969E838D831F828D819E816F8103
:103720007BDD8091920364D11092920308C04C8596
:103730005D852A853B8588859985B9017ADA0000FF
:103740002D960FB6F894DEBF0FBECDBFDF91CF919F
:103750000895CF93DF93CDB7DEB72D970FB6F894CA
:10376000DEBF0FBECDBF998788877B876A875D875D
:103770004C871A821982288539858A859B85820F14
:10378000931F9C838B838B819C819E838D831F825F
:103790008D819E81FC01818116DD8F838F8188233D
:1037A00051F48C859D8522E030E0FC01318320833B
:1037B0008EEF9FEF31C08D819E81FC0123818D8131
:1037C0009E81FC0184819581A681B781422FBC0135
:1037D000CD01DDD08F838F81882351F48C859D8529
:1037E00022E030E0FC013183208384EF9FEF14C09E
:1037F0008D819E81FC01818180939203809192034F
:10380000882F90E09C012F5F3F4F8C859D85FC01A8
:103810003183208389819A812D960FB6F894DEBF7B
:103820000FBECDBFDF91CF910895CF93DF93CDB77A
:10383000DEB72D970FB6F894DEBF0FBECDBF9987C8
:1038400088877B876A875D874C8788859985892BE0
:1038500091F58ED09A8389838A859B859C838B83FF
:103860008B819C8141E050E060E070E00E94F15A61
:103870008B819C812FEFFC01208389819A81892B88
:1038800011F180919203882F90E001962C853D855F
:1038900028173907C1F48A859B8501969E838D83FD
:1038A0001F828D819E816F81B7DC80919203A0D0B1
:1038B0001092920308C04C855D852A853B858885DA
:1038C0009985B901B6D900002D960FB6F894DEBFE0
:1038D0000FBECDBFDF91CF910895CF93DF931F929D
:1038E0001F92CDB7DEB79A83898389819A8147E099
:1038F00050E067E272E050DA0F900F90DF91CF91C5
:103900000895CF93DF93CDB7DEB78DE69CE110D05D
:1039100093D00000DF91CF910895CF93DF93CDB77F
:10392000DEB78091930390919403DF91CF91089536
:10393000CF93DF931F921F92CDB7DEB79A8389830F
:1039400089819A81909394038093930300000F9050
:103950000F90DF91CF910895CF93DF93CDB7DEB76E
:1039600073D080E090E0E4DF0000DF91CF91089514
:10397000CF93DF93CDB7DEB780918D0390918E0307
:10398000A0918F03B0919003DF91CF910895CF93D1
:10399000DF9300D01F921F92CDB7DEB769837A8381
:1039A0008B839C834D838D81882351F489819A81F7
:1039B000AB81BC81892B8A2B8B2B11F480E010C04A
:1039C00089819A81AB81BC8180938D0390938E0312
:1039D000A0938F03B09390038D818093910381E036
:1039E0000F900F900F900F900F90DF91CF9108954F
:1039F000CF93DF931F92CDB7DEB7898320918D03DC
:103A000030918E0340918F03509190038981882FCC
:103A100090E0A0E0B0E0820F931FA41FB51F809339
:103A20008D0390938E03A0938F03B09390030000B7
:103A30000F90DF91CF910895CF93DF93CDB7DEB78D
:103A40000000DF91CF910895CF93DF93CDB7DEB71C
:103A50000000DF91CF910895CF93DF9300D0CDB7D1
:103A6000DEB79B838A831982F89480919B0390919F
:103A70009C0321E0892B09F020E029838981882398
:103A800009F4789489810F900F900F90DF91CF9176
:103A90000895CF93DF931F921F92CDB7DEB79A831D
:103AA0008983789400000F900F90DF91CF91089553
:103AB000CF93DF931F921F92CDB7DEB79A8389838E
:103AC000F89480919B0390919C03019690939C03A2
:103AD00080939B03789400000F900F90DF91CF911B
:103AE0000895CF93DF931F921F92CDB7DEB79A83CD
:103AF0008983F89480919B0390919C030197909304
:103B00009C0380939B03789400000F900F90DF91AB
:103B1000CF910895CF93DF931F921F92CDB7DEB759
:103B20009A838983209195033091960349815A8124
:103B300063E1649FC001659F900D1124820F931F64
:103B4000FC0183819481029799F020919503309133
:103B5000960349815A8163E1649FC001659F900D7E
:103B60001124820F931FFC0183819481039719F420
:103B700081E090E002C080E090E00F900F90DF9134
:103B8000CF910895CF93DF9300D0CDB7DEB71982E0
:103B90001B821A821B821A8209C08A819B81BADF2A
:103BA00089838A819B8101969B838A838091970375
:103BB000909198032A813B812817390718F489814D
:103BC000882359F381E09981992309F080E00F90CF
:103BD0000F900F90DF91CF910895CF93DF9300D096
:103BE0001F921F92CDB7DEB79B838A836C834D8370
:103BF0008091950390919603892B09F477C0809169
:103C00009703909198032A813B812817390708F080
:103C10006DC020919503309196034A815B8163E1E9
:103C2000649FC001659F900D1124820F931FFC01BA
:103C300080819181892B09F459C02091950330919D
:103C400096034A815B8163E1649FC001659F900D8B
:103C50001124820F931FFC0182819C81981708F028
:103C600045C020919503309196034A815B8163E1C1
:103C7000649FC001659F900D1124820F931FFC016A
:103C8000208131818C81482F50E06DE0649FC0011C
:103C9000659F900D1124820F931FFC0180819181FB
:103CA000892B21F120919503309196034A815B8104
:103CB00063E1649FC001659F900D1124820F931FE3
:103CC000FC01208131818C81482F50E06DE0649FA0
:103CD000C001659F900D1124820F931FFC0182810A
:103CE0009D81981718F481E090E002C080E090E098
:103CF000898389810F900F900F900F900F90DF9123
:103D0000CF910895CF93DF9300D000D000D0CDB7EE
:103D1000DEB78C836D832E833F8348875987198252
:103D20008D81882F90E09B838A838C818F3F41F423
:103D30008A819B818F3F910509F010F481E089838E
:103D4000898129960FB6F894DEBF0FBECDBFDF91F3
:103D5000CF910895CF93DF931F92CDB7DEB78983BC
:103D60008981882F90E08F7E21E0892B09F020E067
:103D7000822F0F90DF91CF910895CF93DF931F9201
:103D80001F92CDB7DEB78A8319828A81882331F0EA
:103D90008A81813019F08A81823011F481E089832F
:103DA00089810F900F90DF91CF910895CF93DF938A
:103DB0001F921F92CDB7DEB78A8319828A8188232A
:103DC00031F08A81813019F08A81823011F481E0EA
:103DD000898389810F900F90DF91CF910895CF93C0
:103DE000DF93CDB7DEB781E0DF91CF910895CF9318
:103DF000DF9300D0CDB7DEB79B838A8320919503F4
:103E0000309196034A815B8163E1649FC001659FA5
:103E1000900D1124820F931FFC0183858230D9F409
:103E200020919503309196034A815B8163E1649F01
:103E3000C001659F900D1124820F931FFC01258105
:103E4000368180911802909119022817390719F0CC
:103E500081E090E002C080E090E08983898188233E
:103E600039F08A819B81892B19F481E090E002C0AE
:103E700080E090E0898389810F900F900F90DF910F
:103E8000CF910895CF93DF9300D000D01F92CDB78C
:103E9000DEB79E838D836F838D819E81FC0120819F
:103EA00031818F81482F50E06DE0649FC001659F94
:103EB000900D1124820F931F9C838B838B819C8197
:103EC000FC01438154818D819E81FC0125853685CD
:103ED000429FC001439F900D529F900D1124019667
:103EE0009A8389838F81882379F48D819E81FC0157
:103EF0008781882F90E080719927892B29F089810B
:103F00009A8104969A83898389819A8127960FB62C
:103F1000F894DEBF0FBECDBFDF91CF910895CF9350
:103F2000DF9300D000D000D01F921F92CDB7DEB734
:103F30009B878A871D821C821A8219821B821B82A0
:103F40001EC08A859B856B819DDF9F838E8319862A
:103F500018868E819F8161E070E00E94273B9987DF
:103F600088872885398589819A818217930720F46B
:103F7000888599859A8389838B818F5F8B838A85D6
:103F80009B85FC0182819B819817D8F28A859B854D
:103F9000AC014F5E5F4F8A859B85FC018281282F93
:103FA00030E0C901880F991F820F931F9C018981FE
:103FB0009A81B9010E94EF3D9D838C838C819D8104
:103FC000892B39F08A859B852FEF3FEFFC01328BDF
:103FD000218B8C819D812B960FB6F894DEBF0FBE8E
:103FE000CDBFDF91CF910895CF93DF931F921F92A2
:103FF000CDB7DEB79A83898389819A81FC01818953
:104000009289019639F089819A81FC01818992898E
:104010000E94903F89819A812FEF3FEFFC01328B04
:10402000218B00000F900F90DF91CF910895CF93D7
:10403000DF93CDB7DEB761970FB6F894DEBF0FBE42
:10404000CDBF9D878C877F876E87598B488B1A825F
:1040500019822C853D858E859F85820F931F9C83B9
:104060008B838B819C819E838D838D819E81FC01BE
:104070008281938198878F838D819E81FC018481C9
:1040800089878D819E81FC0185818A871B868F812E
:1040900098854A856985A1DD8B878B85882351F4B6
:1040A0008889998922E030E0FC01318320838EEFFA
:1040B0009FEF2BC08F8198852DDD982F81E099236C
:1040C00009F080E08B878B85882351F48889998952
:1040D00022E030E0FC013183208388EF9FEF15C0A0
:1040E0008F8198859093150280931402898580931F
:1040F00016028A85809317028889998921E030E029
:10410000FC013183208389819A8161960FB6F894EE
:10411000DEBF0FBECDBFDF91CF910895CF93DF9368
:10412000CDB7DEB763970FB6F894DEBF0FBECDBF35
:104130009F878E87798B688B5B8B4A8B1A8219825B
:104140002E853F8588899989820F931F9C838B8355
:104150008B819C819E838D838091140290911502A6
:1041600098878F83809116028987809117028A87AA
:104170001C861B861D868F8198854A8569852DDD65
:104180008D878D85882351F48A899B8922E030E0D0
:10419000FC01318320838AEF9FEF9AC08F8198853D
:1041A000B9DC982F81E0992309F080E08D878D8517
:1041B000882351F48A899B8922E030E0FC01318315
:1041C000208388EF9FEF84C08D819E81FC018481D4
:1041D0009581A681B7812D813E81F90162812D8172
:1041E0003E81F90171819C01AD01872F8BDD8D87A7
:1041F0008D85882351F48A899B8922E030E0FC0177
:10420000318320838EEF9FEF63C02091950330911F
:1042100096034F81588563E1649FC001659F900DAF
:104220001124820F931FFC01208131818985482F41
:1042300050E06DE0649FC001659F900D1124820FD6
:10424000931FFC01408151818A85282F30E0C901EC
:10425000880F991F880F991F880F991F821B930B36
:10426000840F951F9C878B878D819E81FC01218106
:104270008B859C85FC0120838D819E81FC012281A0
:104280008B859C85FC0121838D819E81FC0123818E
:104290008B859C85FC0122838D819E81FC0184811C
:1042A0009581A681B7812B853C85F9018383948311
:1042B000A583B683809117028F5F809317028A8946
:1042C0009B8921E030E0FC013183208389819A8140
:1042D00063960FB6F894DEBF0FBECDBFDF91CF91CE
:1042E0000895CF93DF93CDB7DEB72F970FB6F8942D
:1042F000DEBF0FBECDBF9B878A877D876C875F87B8
:104300004E871A8219822A853B858C859D85820F6E
:10431000931F9C838B838B819C819E838D831886C6
:104320001F8219868091950390919603892B79F0CD
:104330008D819E81FC012281338180919703909130
:1043400098032817390718F481E090E002C080E054
:1043500090E089878985882351F48E859F8522E0A6
:1043600030E0FC01318320838EEF9FEFA3C02091CA
:104370009503309196038D819E81FC01428153818A
:1043800063E1649FC001659F900D1124820F931F0C
:1043900098878F838D819E81FC0182819381BADB16
:1043A000982F81E0992309F080E089878985882307
:1043B00051F48E859F8522E030E0FC01318320831B
:1043C00088EF9FEF77C08D819E81FC01848195816C
:1043D00021E08038910508F020E02987898588232D
:1043E00051F48E859F8522E030E0FC0131832083EB
:1043F0008EEF9FEF5FC08D819E81FC01978181E0F0
:10440000992309F080E089878985882351F48E8576
:104410009F8522E030E0FC01318320838EEF9FEF07
:1044200049C08D819E81FC01818194DC89878985C9
:10443000882351F48E859F8522E030E0FC01318392
:10444000208386EF9FEF36C08D819E81FC01218104
:104450008F819885FC0127838D819E81FC012481B9
:1044600035818F819885FC01368325838D819E81DE
:10447000FC0126818F819885FC0120878D819E819A
:10448000FC0127818F819885FC0121878F81988588
:10449000FC018085823028F48F81988521E0FC0121
:1044A00020878E859F8521E030E0FC0131832083C9
:1044B00089819A812F960FB6F894DEBF0FBECDBFCB
:1044C000DF91CF9108950F931F93CF93DF93CDB7D3
:1044D000DEB76C970FB6F894DEBF0FBECDBF988FD6
:1044E0008F8B7A8F698F5C8F4B8F1B861A862F89F3
:1044F000388D898D9A8D820F931F9D878C878C852F
:104500009D859F878E87198A188A8E859F85FC01D5
:1045100082819381CC01A0E0B0E08A8B9B8BAC8B35
:10452000BD8B19821E8A8091950390919603892BE9
:1045300099F08091970390919803CC01A0E0B0E0AE
:104540002A893B894C895D89281739074A075B0707
:104550001CF481E090E002C080E090E089838981D2
:10456000882351F48B8D9C8D22E030E0FC01318357
:1045700020838EEF9FEF40C28A899B89AC89BD89D9
:104580008093100290931102A0931202B093130231
:1045900020919503309196034A895B8963E1649F7A
:1045A000C001659F900D1124820F931F998B888BFA
:1045B0008E859F85FC018181E0DB89838981882349
:1045C00051F48B8D9C8D22E030E0FC0131832083FF
:1045D00086EF9FEF11C203DC882309F47DC0888930
:1045E0009989FC0183819481892B09F075C08889A0
:1045F0009989FC018781882F90E082709927892B07
:1046000081F188899989FC0180819181892B91F0C0
:1046100080919A03282F30E088899989FC01828152
:10462000882F90E0820F931F813891051CF481E060
:1046300090E002C080E090E089838981882309F4BA
:104640003EC020919A0388899989FC012287209194
:104650009A0388899989FC018281820F80939A0349
:104660002EC088899989FC0180819181892B91F0E4
:1046700080919903282F30E088899989FC018281F3
:10468000882F90E0820F931F8D3F91051CF481E0ED
:1046900090E002C080E090E089838981882379F0EE
:1046A0002091990388899989FC0122872091990397
:1046B00088899989FC018281820F8093990389817D
:1046C000882351F48B8D9C8D22E030E0FC013183F6
:1046D000208387EF9FEF90C18E859F85FC018181AC
:1046E000813039F08E859F85FC018181823009F00F
:1046F000CBC01B821A8281E089831B821A82B5C0DB
:104700001D821C821F821E821D821C822EC08889EF
:104710009989FC01208131814A815B816DE0649F30
:10472000C001659F900D1124820F931FFC014081F1
:1047300051812C813D81C901880F991F880F991FD4
:10474000880F991F821B930B840F951FFC01818199
:10475000882F90E02E813F81820F931F9F838E834D
:104760008C819D8101969D838C8388899989FC0128
:10477000208131814A815B816DE0649FC001659F2A
:10478000900D1124820F931FFC018281882F90E0ED
:104790002C813D81281739070CF4B9CF8A819B8180
:1047A000892B21F588899989FC018781882F90E0E0
:1047B00080719927892BD1F088899989FC014585D9
:1047C00056852E813F81429FC001439F900D529F8D
:1047D000900D11248C010B5F1F4F0E94753B21E04F
:1047E0008017910708F420E0298319C088899989E6
:1047F000FC01458556852E813F81429FC001439F24
:10480000900D529F900D11248C010F5F1F4F0E943D
:10481000753B21E08017910708F420E02983898106
:10482000882351F48B8D9C8D22E030E0FC01318394
:10483000208387EF9FEFE0C088899989FC01208160
:1048400031814A815B816DE0649FC001659F900D5D
:104850001124820F931F2E813F81FC013483238317
:104860008A819B8101969B838A8388899989FC012F
:104870008281882F90E02A813B812817390724F410
:104880008981882309F03CCF88899989FC01858139
:104890009681E2D88E8B8E89882309F49EC0198672
:1048A00018868E859F85FC018181882F90E081305C
:1048B0009105D1F08230910509F469C0892B09F086
:1048C00071C08889998921E030E0FC013483238319
:1048D00059D9882309F463C081E090E00E94C5158E
:1048E00080E40E94F3155BC088899989FC01818965
:1048F00092890196C9F588899989FC0125813681BB
:1049000080911802909119022817390799F4888923
:104910009989AC014F5E5F4F20911C0230911D02BE
:1049200080911A0290911B02B9010E9488409987D8
:1049300088871AC08A899B89AC89BD89181619068F
:104940001A061B068CF088899989FC01858196815D
:10495000892B51F488899989E2DA9987888788892F
:104960009989FC01108A178688859985892BC9F455
:104970008889998923E030E0FC013483238382E035
:1049800090E00E94C51580E40E94E2150AC0888963
:10499000998922E030E0FC013483238303C00000C6
:1049A00001C0000088899989FC018581968171D8B0
:1049B0008B8D9C8D22E030E0FC0131832083888543
:1049C0009985892B51F08B8D9C8D22E030E0FC0184
:1049D000318320838DEF9FEF0FC08E89882351F4A0
:1049E0008B8D9C8D22E030E0FC013183208385EFAC
:1049F0009FEF02C08A859B856C960FB6F894DEBF48
:104A00000FBECDBFDF91CF911F910F910895CF932E
:104A1000DF9300D000D01F921F92CDB7DEB79C83EA
:104A20008B837E836D8358874F838B819C81892BF9
:104A300029F58D819E819A83898389819A812FEFBF
:104A4000FC01208320919503309196038091100200
:104A500090911102A0911202B0911302AC0163E196
:104A6000649FC001659F900D1124820F931FFC016C
:104A7000228589819A81FC01218309C04F81588553
:104A80002D813E818B819C81B9010E941916000005
:104A900028960FB6F894DEBF0FBECDBFDF91CF9141
:104AA0000895CF93DF93CDB7DEB766970FB6F8942E
:104AB000DEBF0FBECDBF9A8B898B7C8B6B8B5E8BE1
:104AC0004D8B18861F8229893A898B899C89820F90
:104AD000931F9A87898789859A859C878B871D86EE
:104AE0001E8619821A821B821C828B859C85FC0182
:104AF00081815CD98D878D85882351F48D899E892C
:104B000022E030E0FC013183208386EF9FEF20C25A
:104B10008091950390919603892B49F0809197039A
:104B200090919803892B19F081E090E002C080E019
:104B300090E08D878D85882351F48D899E8922E0B0
:104B400030E0FC01318320838EEF9FEF01C20E9491
:104B50000B348E878E85882309F4EBC11E821D825B
:104B6000188A1F868B859C85FC018181882F90E0A7
:104B70008130910509F456C08230910509F46CC169
:104B8000892B09F0BFC119821A821B821C8231C095
:104B9000209195033091960349815A8163E1649F86
:104BA000C001659F900D1124820F931FFC0183812A
:104BB0009481892B99F02091950330919603498136
:104BC0005A8163E1649FC001659F900D1124820F9B
:104BD000931F21E030E0FC013483238389819A8193
:104BE000AB81BC810196A11DB11D89839A83AB83E2
:104BF000BC838091970390919803CC01A0E0B0E032
:104C000029813A814B815C81281739074A075B0764
:104C10000CF4BECF81E090E00E94C51580E40E94B4
:104C2000F31570C119821A821B821C82ACC02091BC
:104C300095033091960349815A8163E1649FC001D5
:104C4000659F900D1124820F931FFC018381948135
:104C5000029709F08DC02091950330919603498108
:104C60005A8163E1649FC001659F900D1124820FFA
:104C7000931FFC0181899289019609F079C02091E6
:104C800095033091960349815A8163E1649FC00185
:104C9000659F900D1124820F931FFC0125813681A1
:104CA000809118029091190228173907F9F4209180
:104CB00095033091960349815A8163E1649FC00155
:104CC000659F900D1124820F931FAC014F5E5F4FC3
:104CD00020911C0230911D0280911A0290911B02BA
:104CE000B9010E9488409E838D8342C089819A8148
:104CF000AB81BC81181619061A061B06CCF120914F
:104D000095033091960349815A8163E1649FC00104
:104D1000659F900D1124820F931FFC018581968160
:104D2000892B31F5209195033091960349815A8161
:104D300063E1649FC001659F900D1124820F931F52
:104D4000EED89E838D8320919503309196034981FF
:104D50005A8163E1649FC001659F900D1124820F09
:104D6000931FFC01108A178689819A81988B8F87FF
:104D700089819A81AB81BC810196A11DB11D898376
:104D80009A83AB83BC838091970390919803CC0165
:104D9000A0E0B0E029813A814B815C812817390776
:104DA0004A075B072CF48D819E81892B09F43FCF44
:104DB0008D819E81892B09F0A2C019821A821B82E3
:104DC0001C8238C0209195033091960349815A8105
:104DD00063E1649FC001659F900D1124820F931FB2
:104DE000FC01838194810297D1F420919503309145
:104DF000960349815A8163E1649FC001659F900DCC
:104E00001124820F931F23E030E0FC0134832383BD
:104E100082E090E00E94C51580E40E94E21589813D
:104E20009A81AB81BC810196A11DB11D89839A83B2
:104E3000AB83BC838091970390919803CC01A0E051
:104E4000B0E029813A814B815C81281739074A07F4
:104E50005B070CF4B7CF53C019821A821B821C82E5
:104E600031C0209195033091960349815A8163E1C5
:104E7000649FC001659F900D1124820F931FFC0158
:104E800083819481029799F4209195033091960340
:104E900049815A8163E1649FC001659F900D11248F
:104EA000820F931F21E030E0FC013483238389814A
:104EB0009A81AB81BC810196A11DB11D89839A8322
:104EC000AB83BC838091970390919803CC01A0E0C1
:104ED000B0E029813A814B815C81281739074A0764
:104EE0005B070CF4BECF0E94C21D882351F081E005
:104EF00090E00E94C51580E40E94F31502C00000F6
:104F000001C000000E941C348D819E81892B51F0CC
:104F10008D899E8922E030E0FC01318320838DEF72
:104F20009FEF16C08D899E8921E030E0FC0131831E
:104F300020838E85882351F48D899E8922E030E07C
:104F4000FC013183208385EF9FEF02C08F8198851C
:104F500066960FB6F894DEBF0FBECDBFDF91CF913E
:104F60000895CF93DF9300D000D0CDB7DEB79A83FA
:104F700089837C836B835E834D838D819E8128E052
:104F800030E0FC013183208380E090E026960FB66C
:104F9000F894DEBF0FBECDBFDF91CF910895CF93C0
:104FA000DF9300D000D01F921F92CDB7DEB79C8355
:104FB0008B837E836D8358874F838D819E819A83F7
:104FC000898389819A8148E050E060E070E00E9426
:104FD000F15A89819A812FEFFC01208389819A817E
:104FE00021E1FC01218389819A812FEF3FEFFC01B0
:104FF0003383228389819A8120E830E0FC01358364
:10500000248389819A81FC01168289819A81FC011D
:105010001782000028960FB6F894DEBF0FBECDBFF2
:10502000DF91CF910895CF93DF9300D000D0CDB71B
:10503000DEB79A8389837C836B835E834D838D8106
:105040009E8128E030E0FC013183208380E090E005
:1050500026960FB6F894DEBF0FBECDBFDF91CF917D
:105060000895CF93DF9300D000D01F921F92CDB749
:10507000DEB79C838B837E836D8358874F838D81BE
:105080009E819A83898389819A8148E050E060E01B
:1050900070E00E94F15A89819A812FEFFC012083F0
:1050A00089819A8121E0FC01218389819A812FEFF6
:1050B000FC01228389819A8121E0FC01238389817B
:1050C0009A812FEFFC01248389819A8124E3FC01DA
:1050D000258389819A8121E030E0FC013783268392
:1050E000000028960FB6F894DEBF0FBECDBFDF914B
:1050F000CF910895CF93DF9300D000D000D0CDB7EB
:10510000DEB79D838C837F836E83598748871A829D
:1051100019821B820E9428348B838B81882351F44F
:105120008885998522E030E0FC013183208385EF7A
:105130009FEF0DC081E090E00E94C515888599859C
:1051400021E030E0FC013183208389819A81299616
:105150000FB6F894DEBF0FBECDBFDF91CF9108959B
:10516000CF93DF93CDB7DEB765970FB6F894DEBF68
:105170000FBECDBF998B888B7B8B6A8B5D8B4C8BE5
:105180001C821B82288939898A899B89820F931FF7
:105190009E838D838D819E8198878F838F81988553
:1051A000FC0182819381CC01A0E0B0E089879A87DD
:1051B000AB87BC871E861D861F861A821982809146
:1051C00095039091960321E0892B09F020E02F8729
:1051D0008F85882351F48C899D8922E030E0FC0181
:1051E000318320838CEF9FEFC9C089859A85AB8579
:1051F000BC85181619061A061B065CF489859A8563
:10520000AB85BC850097A140B1051CF481E090E01E
:1052100002C080E090E08F878F85882351F48C89CD
:105220009D8922E030E0FC01318320838EEF9FEFE7
:10523000A5C089859A8543E1489F9001499F300D1B
:105240001124C9010E94383D9E878D878D859E85DA
:10525000892B51F48C899D8922E030E0FC01318357
:1052600020838DEF9FEF8AC089859A8543E1489F0F
:105270009001499F300D11248D859E85A90160E024
:1052800070E00E94F15A8D859E85909396038093DD
:10529000950389859A8590939803809397031A8242
:1052A000198253C029813A8143E1429FC001439F43
:1052B000900D11242D853E85820F931F2FEF3FEF18
:1052C000FC01328B218B29813A8143E1429FC0014D
:1052D000439F900D11242D853E85820F931FFC0165
:1052E000138629813A8143E1429FC001439F900D7B
:1052F00011242D853E85820F931F21E0FC01248718
:1053000029813A8143E1429FC001439F900D1124BE
:105310002D853E85820F931F21E030E0FC0136870A
:10532000258729813A8143E1429FC001439F900D27
:1053300011242D853E85820F931FFC01108A17864C
:1053400089819A8101969A83898389819A81092E1C
:10535000000CAA0BBB0B29853A854B855C8582170F
:105360009307A407B5070CF49DCF8C899D8921E094
:1053700030E0FC01318320838B819C8165960FB6E0
:10538000F894DEBF0FBECDBFDF91CF9108950F938C
:105390001F93CF93DF93CDB7DEB760970FB6F89426
:1053A000DEBF0FBECDBF9C878B877E876D87588BF6
:1053B0004F871A8219822B853C858D859E85820FA9
:1053C000931F9C838B838B819C819E838D838D8196
:1053D0009E81FC018281938198878F838D819E813C
:1053E000FC01848189871A868091950390919603A8
:1053F00021E0892B09F420E02A878A85882351F44B
:105400008F85988922E030E0FC01318320838CEF86
:105410009FEFC9C0809197039091980341E02F813D
:1054200038852817390708F040E04A878A8588239D
:1054300051F48F85988922E030E0FC01318320838C
:105440008EEF9FEFB0C08985882331F089858D3F2D
:1054500018F481E090E002C080E090E08A878A85BD
:10546000882351F48F85988922E030E0FC01318354
:1054700020838EEF9FEF97C0209195033091960384
:105480004F81588563E1649FC001659F900D112491
:10549000820F931FFC018081918121E0892B09F00B
:1054A00020E02A878A85882351F48F85988922E015
:1054B00030E0FC01318320838CEF9FEF74C089853D
:1054C000882F90E02DE0289FB001299F700D1124B6
:1054D00020919503309196034F815885E3E1E49F35
:1054E000C001E59F900D11248901080F191FCB0100
:1054F0000E94383DF801918380832091950330917B
:1055000096034F81588563E1649FC001659F900DAC
:105510001124820F931FFC0180819181892B51F40A
:105520008F85988922E030E0FC01318320838DEF64
:105530009FEF39C08985882F90E02DE0289FB0012A
:10554000299F700D112420919503309196034F816E
:105550005885E3E1E49FC001E59F900D1124820F7F
:10556000931FFC0180819181AB0160E070E00E949B
:10557000F15A20919503309196034F81588563E14C
:10558000649FC001659F900D1124820F931F298590
:10559000FC0122838F85988921E030E0FC01318372
:1055A000208389819A8160960FB6F894DEBF0FBE82
:1055B000CDBFDF91CF911F910F9108950F931F934E
:1055C000CF93DF93CDB7DEB761970FB6F894DEBF08
:1055D0000FBECDBF9D878C877F876E87598B488B89
:1055E0001A8219822C853D858E859F85820F931F97
:1055F0009C838B838B819C819E838D838D819E81F7
:10560000FC018281938198878F838D819E81FC012B
:10561000848189878D819E81FC0185818A871B8693
:10562000809195039091960321E0892B09F420E065
:105630002B878B85882351F48889998922E030E073
:10564000FC01318320838CEF9FEF57C1809197033A
:105650009091980341E02F8138852817390708F089
:1056600040E04B878B85882351F48889998922E013
:1056700030E0FC01318320838EEF9FEF3EC120910B
:105680009503309196034F81588563E1649FC00173
:10569000659F900D1124820F931FFC0180819181E1
:1056A00021E0892B09F420E02B878B85882351F496
:1056B0008889998922E030E0FC01318320838CEFD6
:1056C0009FEF1BC120919503309196034F81588520
:1056D00063E1649FC001659F900D1124820F931FA9
:1056E000FC01928181E02985291708F080E08B87F1
:1056F0008B85882351F48889998922E030E0FC0168
:10570000318320838EEF9FEFF8C020919503309175
:1057100096034F81588563E1649FC001659F900D9A
:105720001124820F931FFC01208131818985482F2C
:1057300050E06DE0649FC001659F900D1124820FC1
:10574000931FFC018081918121E0892B09F020E0E9
:105750002B878B85882351F48889998922E030E052
:10576000FC01318320838CEF9FEFC7C081E09A85D5
:10577000992309F480E08B878B85882351F48889ED
:10578000998922E030E0FC01318320838EEF9FEF86
:10579000B4C08A85282F30E0C901880F991F880F6F
:1057A000991F880F991FBC01621B730B20919503F1
:1057B000309196034F815885E3E1E49FC001E59F56
:1057C000900D1124820F931FFC0120813181898566
:1057D000482F50E0EDE0E49FC001E59F900D1124BB
:1057E0008901080F191FCB010E94383DF8019183F0
:1057F000808320919503309196034F81588563E112
:10580000649FC001659F900D1124820F931FFC01BE
:10581000208131818985482F50E06DE0649FC0016F
:10582000659F900D1124820F931FFC01808191814F
:10583000892B51F48889998922E030E0FC01318379
:1058400020838DEF9FEF59C08A85282F30E0C90152
:10585000880F991F880F991F880F991FBC01621B21
:10586000730B20919503309196034F815885E3E1A6
:10587000E49FC001E59F900D1124820F931FFC014E
:10588000208131818985482F50E0EDE0E49FC001FF
:10589000E59F900D1124820F931FFC01808191815F
:1058A000AB0160E070E00E94F15A209195033091C5
:1058B00096034F81588563E1649FC001659F900DF9
:1058C0001124820F931FFC01208131818985482F8B
:1058D00050E06DE0649FC001659F900D1124820F20
:1058E000931F2A85FC0122838889998921E030E071
:1058F000FC013183208389819A8161960FB6F894E7
:10590000DEBF0FBECDBFDF91CF911F910F910895E4
:10591000CF93DF93CDB7DEB763970FB6F894DEBFB2
:105920000FBECDBF9F878E87798B688B5B8B4A8B31
:105930001A8219822E853F8588899989820F931F43
:105940009C838B838B819C819E838D838D819E81A3
:10595000FC018281938198878F838D819E81FC01D8
:10596000848189878D819E81FC0185818A878D81D3
:105970009E81FC01868197819C878B8781E08D8742
:10598000809195039091960321E0892B09F420E002
:105990002D878D85882351F48A899B8922E030E008
:1059A000FC01318320838CEF9FEFE0C0809197034F
:1059B0009091980341E02F8138852817390708F026
:1059C00040E04D878D85882351F48A899B8922E0A8
:1059D00030E0FC01318320838EEF9FEFC7C021E0D0
:1059E0008F819885892B09F020E02D878D8588236C
:1059F00051F48A899B8922E030E0FC0131832083C5
:105A000086EF9FEFB3C08985882319F0898582309E
:105A100019F481E090E002C080E090E08D878D85F0
:105A2000882351F48A899B8922E030E0FC0131838C
:105A3000208386EF9FEF9AC081E09A85913009F02C
:105A400080E08D878D85882351F48A899B8922E0A7
:105A500030E0FC013183208386EF9FEF87C089858A
:105A6000882321F48B859C85019739F089858823CB
:105A700039F08B859C85029718F081E090E002C098
:105A800080E090E08D878D85882351F48A899B89F9
:105A900022E030E0FC013183208386EF9FEF66C077
:105AA0008F8198850E948A1D982F81E0992309F0A3
:105AB00080E08D878D85882351F48A899B8922E037
:105AC00030E0FC013183208388EF9FEF4FC02091AD
:105AD0009503309196034F81588563E1649FC0011F
